:0400000007EF00F016
:0A000800368203ED04F0B1EF06F0BC
:05080000004B6D00003B
:100806000600FACF01F0FBCF02F0E9CF03F0EACF02
:1008160004F0E1CF05F0E2CF06F0D9CF07F0DACF4A
:1008260008F0F3CF09F0F4CF0AF0F6CF0BF0F7CFCC
:100836000CF0F8CF0DF0F5CF0EF09EB49DA422D0AB
:10084600314A322A334A342AF40E31180BE1320483
:10085600D8A408D0000E2E6E010E2D6E000E326E3C
:10086600000E316E880E33180CE1130E3418D8A41E
:1008760008D0000E306E010E2F6E000E346E000E84
:10088600336E9E940EC0F5FF0DC0F8FF0CC0F7FF47
:100896000BC0F6FF0AC0F4FF09C0F3FF08C0DAFF79
:1008A60007C0D9FF06C0E2FF05C0E1FF04C0EAFFAA
:1008B60003C0E9FF02C0FBFF01C0FAFF3692110038
:1008C6002F503010D8B43AD0000E166E040E1664AF
:1008D60001D006D01650100F24EC07F0162AF6D7D2
:1008E6002B2A390E2B641BD0300E2B6E2A2A390E7A
:1008F6002A6415D0300E2A6E292A390E29640FD0A3
:10090600300E296E282A390E286409D0300E286E3A
:10091600272A390E276403D0300E276E262A070EA3
:10092600126E010ECCEC05F0260E126E000E136E42
:1009360066EC06F0000E306E000E2F6E000E176E7F
:10094600040E156E040E176401D012001550010D29
:10095600260EF324D96E000EF420DA6EDF500F6EE9
:100966001750100FE5EC06F0172A1506EBD79594ED
:10097600959295909598959A959C959E8394839239
:100986008390839E839C838A8388EA0E126EC30EAD
:10099600E82EFED7122EFCD700F08380F8EC06F086
:1009A6008390F8EC06F04E0E126EEB0EE82EFED794
:1009B600122EFCD700F08380F8EC06F08390F8EC5A
:1009C60006F04E0E126EEB0EE82EFED7122EFCD758
:1009D60000F08380F8EC06F08390F8EC06F0839E36
:1009E600839C838A83988380F8EC06F08390F8ECE6
:1009F60006F0280E09EC05F0060E09EC05F00E0EC1
:100A060009EC05F0010E09EC05F01200116E839455
:100A16008392839011A802D0838801D0839811AA6B
:100A260002D0838A01D0839A11AC02D0838C01D084
:100A3600839C11AE02D0838E01D0839E8380F8EC16
:100A460006F08390F8EC06F011A002D0838801D05E
:100A5600839811A202D0838A01D0839A11A402D06E
:100A6600838C01D0839C11A602D0838E01D0839EF5
:100A76008380F8EC06F08390F8EC06F01104D8B405
:100A860008D0020E1118D8B404D0030E1118D8A439
:100A96001200F8EC06F012002D502E10D8B41200F9
:100AA600242A390E24641200300E246E222A390EAE
:100AB600226426D0300E226E212A390E216420D0DF
:100AC600300E216E202A390E20641AD0300E206E88
:100AD6001F2A390E1F6414D0000E356E030E3564BE
:100AE60001D00ED03550010D1F0EF324D96E000E25
:100AF600F420DA6E300EDF6E300E246E352AEED715
:100B0600070E126E020ECCEC05F01F0E126E000ED2
:100B1600136E66EC06F0000E2E6E000E2D6E1200A1
:100B2600116E83948382839011A802D0838801D0AA
:100B3600839811AA02D0838A01D0839A11AC02D07D
:100B4600838C01D0839C11AE02D0838E01D0839E0C
:100B56008380F8EC06F08390F8EC06F011A002D042
:100B6600838801D0839811A202D0838A01D0839A08
:100B760011A402D0838C01D0839C11A602D0838E4F
:100B860001D0839E8380F8EC06F08390F8EC06F0A3
:100B96001200136E000E146E110E12602FD01ED0AE
:100BA60012C014F0145004EC06F026D01250400F78
:100BB600146E145004EC06F01FD01250140F146E6D
:100BC600145004EC06F018D01250540F146E145042
:100BD60004EC06F011D0000E146E0ED01350010A6C
:100BE600D8B4DED7030AD8B4E1D7010AD8B4E5D71A
:100BF600070AD8B4E9D7EFD7122A1200000E146EEE
:100C06001200116E839483928390838E11A802D072
:100C1600838801D0839811AA02D0838A01D0839A4F
:100C260011AC02D0838C01D0839C8380F8EC06F053
:100C36008390F8EC06F011A002D0838801D0839847
:100C460011A202D0838A01D0839A11A402D0838C88
:100C560001D0839C11A602D0838E01D0839E83800F
:100C6600F8EC06F08390F8EC06F01200070E126E10
:100C7600010ECCEC05F0260E126E000E136E66EC1D
:100C860006F0070E126E020ECCEC05F01F0E126E69
:100C9600000E136E66EC06F00E0E126E010ECCEC14
:100CA60005F0010E126E080E136E66EC06F00E0EBF
:100CB600126E020ECCEC05F0010E126E080E136ECB
:100CC60066EC06F0120014D012C0F6FF13C0F7FF50
:100CD600F86A070EF76403D00800F55005D0F6CF82
:100CE600E9FFF7CFEAFFEF5093EC05F0124A132A1B
:100CF60012C0F6FF13C0F7FFF86A070EF76403D0B9
:100D06000800F55005D0F6CFE9FFF7CFEAFFEF5020
:100D16000009D8B41200D8D7000E926E000E936E5A
:100D2600000E946E9484000E956E0F0E966E010E54
:100D3600C26E0D0EC16E840EC06E8490000E896E5A
:100D4600000E8A6E000E8C6E450ED56E050EBD6EBB
:100D5600440ECD6EB196F28EF28C1200320EF66E05
:100D66000E0EF76E000EF86E00EE18F010EE15F08F
:100D76000900F5CFEEFFE550E150FAE100EE2DF067
:100D8600090EEE6AE806FDE136903692000EF86E20
:100D960000010AEF07F0E00EF26E800EF16E000E13
:100DA600F06E050EBD6E000E9E6E000EA16E040E58
:100DB6009D6E000EA06E000E9F6E000EA26E000EBF
:100DC600D06E1200106E10C0A9FF0FC0A8FFA69E1D
:100DD600A69CA684F29E550EA76EAA0EA76EA682A4
:100DE600A6B2FED7F28EA6941200000E0F6E630E08
:100DF6000F6401D0120000F0000E106E310E106468
:100E060001D003D000F0102AF9D70F2AF0D7BAEC98
:100E160004F0CEEC06F08FEC06F02BEC07F039EC84
:100E260006F063EC04F04FEC05F0FBD730303030C1
:100E3600303000303030302C300030303030303010
:010E460000AB
:100E48000F6E0FC0A9FF010EA66EA8501200040E67
:040E5800A66E120070
:020000040020DA
:08000000FFFFFFFFFFFFFFFF00
:020000040030CA
:0E00000000051F1FFF8385FF0FC00FE00F409C
:00000001FF
