:0400000007EF00F016
:0A000800548271ED04F0F5EF06F0EC
:05080000004B6D00003B
:10080600000E0001676F000E0001666F19501A1086
:10081600D8B412003D2A390E3D641200300E3D6EEA
:100826003B2A390E3B6426D0300E3B6E3A2A390EEF
:100836003A6420D0300E3A6E392A390E39641AD00D
:10084600300E396E382A390E386414D0000E2C6EEC
:10085600030E2C6401D00ED02C50010D380EF3245B
:10086600D96E000EF420DA6E300EDF6E300E3D6E5D
:100876002C2AEED7070E0001636F020E72EC05F00C
:10088600380E0001636F000E0001646FA9EC06F0DC
:10089600000E1A6E000E196E84B016D00001675154
:1008A6000001D8A411D0050E0001666F0001665143
:1008B600010D380EF324D96E000EF420DA6E300ED8
:1008C600DF6E00016607F2D784A0120000016705FB
:1008D600D8A41200000E0001676F12000600FACFBE
:1008E60046F0FBCF47F0E9CF48F0EACF49F0E1CF39
:1008F6004AF0E2CF4BF0D9CF4CF0DACF4DF0F3CF40
:100906004EF0F4CF4FF0F6CF50F0F7CF51F0F8CFCE
:1009160052F0F5CF53F09EB49DA422D01D4A1E2A54
:100926001F4A202AF40E1D180BE11E04D8A408D075
:10093600000E1A6E010E196E000E1E6E000E1D6E52
:10094600880E1F180CE1130E2018D8A408D0000E2C
:100956001C6E010E1B6E000E206E000E1F6E9E9406
:1009660053C0F5FF52C0F8FF51C0F7FF50C0F6FF65
:100976004FC0F4FF4EC0F3FF4DC0DAFF4CC0D9FFA5
:100986004BC0E2FF4AC0E1FF49C0EAFF48C0E9FFA9
:1009960047C0FBFF46C0FAFF549211000001626F88
:1009A600839483928390000162A902D0838801D048
:1009B6008398000162AB02D0838A01D0839A00013A
:1009C60062AD02D0838C01D0839C000162AF02D05D
:1009D600838E01D0839E838012EC07F0839012EC05
:1009E60007F0000162A102D0838801D0839800013C
:1009F60062A302D0838A01D0839A000162A502D045
:100A0600838C01D0839C000162A702D0838E01D023
:100A1600839E838012EC07F0839012EC07F00001AE
:100A26006205D8B40AD0020E00016219D8B405D006
:100A3600030E00016219D8A4120012EC07F012008E
:100A46009594959295909598959A959C959E839454
:100A560083928390839E839C838A8388EA0E000117
:100A6600636FC30EE82EFED7632FFCD7838012EC8C
:100A760007F0839012EC07F04E0E0001636FEB0E49
:100A8600E82EFED7632FFCD7838012EC07F0839005
:100A960012EC07F04E0E0001636FEB0EE82EFED748
:100AA600632FFCD7838012EC07F0839012EC07F0DB
:100AB600839E839C838A8398838012EC07F08390BD
:100AC60012EC07F0280ED1EC04F0060ED1EC04F07F
:100AD6000E0ED1EC04F0010ED1EC04F01200000170
:100AE600646F000E0001656F110E000163613CD05A
:100AF60029D063C065F000016551FDEC05F031D0E9
:100B060000016351400F0001656F00016551FDEC66
:100B160005F027D000016351140F0001656F000135
:100B26006551FDEC05F01DD000016351540F000125
:100B3600656F00016551FDEC05F013D0000E000154
:100B4600656F0FD000016451010AD8B4D2D7030AE9
:100B5600D8B4D6D7010AD8B4DDD7070AD8B4E4D7B3
:100B6600EDD70001632B1200000E0001656F120025
:100B76000001626F839483828390000162A902D090
:100B8600838801D08398000162AB02D0838A01D0AA
:100B9600839A000162AD02D0838C01D0839C000150
:100BA60062AF02D0838E01D0839E838012EC07F061
:100BB600839012EC07F0000162A102D0838801D075
:100BC6008398000162A302D0838A01D0839A000130
:100BD60062A502D0838C01D0839C000162A702D05B
:100BE600838E01D0839E838012EC07F0839012ECF3
:100BF60007F012000001626F839483928390838EC4
:100C0600000162A902D0838801D08398000162ABFB
:100C160002D0838A01D0839A000162AD02D0838C10
:100C260001D0839C838012EC07F0839012EC07F0CE
:100C3600000162A102D0838801D08398000162A3DB
:100C460002D0838A01D0839A000162A502D0838CE8
:100C560001D0839C000162A702D0838E01D0839EBF
:100C6600838012EC07F0839012EC07F01200070E57
:100C76000001636F010E72EC05F03F0E0001636F19
:100C8600000E0001646FA9EC06F0070E0001636F09
:100C9600020E72EC05F0380E0001636F000E0001C3
:100CA600646FA9EC06F00E0E0001636F010E72EC84
:100CB60005F0010E0001636F080E0001646FA9ECD8
:100CC60006F00E0E0001636F020E72EC05F0010EC7
:100CD6000001636F080E0001646FA9EC06F01200B4
:100CE6001B501C10D8B41200442A390E44641BD081
:100CF600300E446E432A390E436415D0300E436ECF
:100D0600422A390E42640FD0300E426E412A390E05
:100D1600416409D0300E416E402A390E406403D03A
:100D2600300E406E3F2A070E0001636F010E72EC13
:100D360005F03F0E0001636F000E0001646FA9EC21
:100D460006F0000E1C6E000E1B6E120015D063C05E
:100D5600F6FF64C0F7FFF86A070EF76403D00800D1
:100D6600F55005D0F6CFE9FFF7CFEAFFEF50BBEC21
:100D760005F00001634B642B63C0F6FF64C0F7FF08
:100D8600F86A070EF76403D00800F55005D0F6CFD1
:100D9600E9FFF7CFEAFFEF500009D8B41200D7D722
:100DA600000E926E000E936E000E946E9484000EEA
:100DB600956E0F0E966E010EC26E0D0EC16E840EEE
:100DC600C06E8490000E896E000E8A6E000E8C6EC8
:100DD600450ED56E050EBD6E440ECD6EB196F28EE5
:100DE600F28C1200A00EF66E0E0EF76E000EF86E66
:100DF60000EE31F010EE15F00900F5CFEEFFE550EC
:100E0600E150FAE100EE01F0300EEE6AE806FDE18F
:100E160054905492000EF86E000141EF07F0000E58
:100E26000001606F630E0001606501D0120000F0E2
:100E3600000E0001616F310E0001616501D004D022
:100E460000F00001612BF7D70001602BEBD7E00E15
:100E5600F26E800EF16E000EF06E050EBD6E000E87
:100E66009E6E000EA16E040E9D6E000EA06E000E0C
:100E76009F6E000EA26E000ED06E120023EC05F0DF
:100E86002AEC07F0D3EC06F05BEC07F03AEC06F040
:100E960073EC06F003EC04F0FBD730303030303022
:0F0EA60000303030302C30003030303030300001
:060EB600040EA66E1200FE
:020000040020DA
:08000000FFFFFFFFFFFFFFFF00
:020000040030CA
:0E00000000051F1FFF8385FF0FC00FE00F409C
:00000001FF
