:0400000007EF00F016
:0A000800518275ED05F08BEF08F052
:05080000004B6D00003B
:100806000ED0000E356E090E356401D006D0D0EC40
:1008160008F0C2EC06F0352AF6D7000E356E350420
:10082600D8B4EFD7F40E2E5C010E2F58D8A0DCD02A
:10083600D0EC08F0C2EC06F000016451000162251C
:1008460000017C6F000165510001632100017D6F8D
:100856000001665100017C270001675100017D23DC
:100866000001685100017C270001695100017D23C8
:1008760000016A5100017C2700016B5100017D23B4
:1008860000016C5100017C2700016D5100017D23A0
:1008960000016E5100017C2700016F5100017D238C
:1008A6000001705100017C270001715100017D2378
:1008B6000001725100017C270001735100017D2364
:1008C6000001605100017C250F6E0001615100019D
:1008D6007D21106E000E126E0A0E116E62EC08F08B
:1008E6000FC030F010C031F0315006E1330E305CED
:1008F600D8B002D0000E816E315004E1330E305C68
:10090600D8A008D0315006E1560E305CD8B002D0DF
:10091600800E816E315004E1560E305CD8A008D0AE
:10092600315006E1790E305CD8B002D0C00E816E2F
:10093600315004E1790E305CD8A008D0315006E180
:100946009C0E305CD8B002D0E00E816E315004E1CE
:100956009C0E305CD8A008D0315006E1BF0E305C4A
:10096600D8B002D0F00E816E315004E1BF0E305C7B
:10097600D8A008D0315006E1E20E305CD8B002D0E3
:10098600F80E816E315004E1E20E305CD8A008D03A
:100996000D0E305C010E3158D8B002D0FC0E816EBF
:1009A6000D0E305C010E3158D8A008D0730E305CA5
:1009B600010E3158D8B002D0FE0E816E730E305C37
:1009C600010E3158D8B081685A0E305C010E31588C
:1009D600D8A003D0010E366E03D0000E366E82808C
:1009E600000E2F6E000E2E6EE80E2C5C030E2D5898
:1009F600D8A012003604D8A4120082A002D0010E9C
:100A060001D0000EFF0A00017C6F825000017C19A4
:100A1600FE0B7C19826E000E2D6E000E2C6E1200DF
:100A2600000E166E000E156E24502510D8B4120056
:100A3600482A390E48641200300E486E462A390E8E
:100A4600466426D0300E466E452A390E456420D0BF
:100A5600300E456E442A390E44641AD0300E446E68
:100A6600432A390E436414D0000E376E030E3764E2
:100A760001D00ED03750010D430EF324D96E000E6F
:100A8600F420DA6E300EDF6E300E486E372AEED75F
:100A9600070E126E020E41EC07F0430E126E000EA8
:100AA600136E39EC08F0000E256E000E246E84B02D
:100AB60011D01650D8A40ED0050E156E1550010D86
:100AC600430EF324D96E000EF420DA6E300EDF6E7C
:100AD6001506F4D784A012001604D8A41200000E3E
:100AE600166E12000600FACF01F0FBCF02F0E9CF36
:100AF60003F0EACF04F0E1CF05F0E2CF06F0D9CF5C
:100B060007F0DACF08F0F3CF09F0F4CF0AF0F6CF0A
:100B16000BF0F7CF0CF0F8CF0DF0F5CF0EF09EB43A
:100B26009DA422D0284A292A2A4A2B2AF40E2818BC
:100B36000BE12904D8A408D0000E256E010E246E00
:100B4600000E296E000E286E880E2A180CE1130E70
:100B56002B18D8A408D0000E276E010E266E000EA4
:100B66002B6E000E2A6E9E940EC0F5FF0DC0F8FF88
:100B76000CC0F7FF0BC0F6FF0AC0F4FF09C0F3FF75
:100B860008C0DAFF07C0D9FF06C0E2FF05C0E1FFD3
:100B960004C0EAFF03C0E9FF02C0FBFF01C0FAFF81
:100BA60051921100000E1B6E000E1C6E000E1D6E83
:100BB600000E1E6E000178510001791100017A11B4
:100BC60000017B11D8B43DD0010E1F6E07D0000185
:100BD600D890783779377A377B371F2A00017BAF71
:100BE600F6D7D8901B361C361D361E3600017851B6
:100BF6000001745D000179510001755900017A51B7
:100C06000001765900017B5100017759D8A011D017
:100C1600000178510001745F000179510001755B94
:100C260000017A510001765B00017B510001775B80
:100C36001B800001D8907B337A33793378331F2EAB
:100C4600D0D71BC074F01CC075F01DC076F01EC056
:100C560077F012009594959295909598959A959C13
:100C6600959E839483928390839E839C838A8388B4
:100C7600EA0E126EC30EE82EFED7122EFCD700F037
:100C8600838027EC09F0839027EC09F04E0E126E54
:100C9600EB0EE82EFED7122EFCD700F0838027EC51
:100CA60009F0839027EC09F04E0E126EEB0EE82E3B
:100CB600FED7122EFCD700F0838027EC09F0839034
:100CC60027EC09F0839E839C838A8398838027EC94
:100CD60009F0839027EC09F0280E7CEC06F0060E4E
:100CE6007CEC06F00E0E7CEC06F0010E7CEC06F0B9
:100CF6001200116E83948392839011A802D0838888
:100D060001D0839811AA02D0838A01D0839A11ACAC
:100D160002D0838C01D0839C11AE02D0838E01D089
:100D2600839E838027EC09F0839027EC09F011A0BD
:100D360002D0838801D0839811A202D0838A01D081
:100D4600839A11A402D0838C01D0839C11A602D071
:100D5600838E01D0839E838027EC09F0839027EC55
:100D660009F01104D8B408D0020E1118D8B404D072
:100D7600030E1118D8A4120027EC09F01200C29431
:100D8600C296C298C29AF1EC08F038C00FF039C08A
:100D960010F03AC011F03BC012F0A00E136E860E92
:100DA600146E010E156E000E166E0EEC08F00FC0D6
:100DB60074F010C075F011C076F012C077F020C044
:100DC60078F021C079F022C07AF023C07BF0D5EC10
:100DD60005F074C038F075C039F076C03AF077C0C7
:100DE6003BF03450020D600EF324D96E000EF42051
:100DF600DA6E38C0DEFF39C0DDFF342A0A0E341839
:100E0600D8A41200000E346E1200116E83948382F1
:100E1600839011A802D0838801D0839811AA02D0AA
:100E2600838A01D0839A11AC02D0838C01D0839C33
:100E360011AE02D0838E01D0839E838027EC09F009
:100E4600839027EC09F011A002D0838801D0839803
:100E560011A202D0838A01D0839A11A402D0838C76
:100E660001D0839C11A602D0838E01D0839E8380FD
:100E760027EC09F0839027EC09F01200136E000EA0
:100E8600146E110E12602FD01ED012C014F0145022
:100E960079EC07F026D01250400F146E145079ECFE
:100EA60007F01FD01250140F146E145079EC07F08F
:100EB60018D01250540F146E145079EC07F011D05C
:100EC600000E146E0ED01350010AD8B4DED7030AF2
:100ED600D8B4E1D7010AD8B4E5D7070AD8B4E9D718
:100EE600EFD7122A1200000E146E1200116E8394B0
:100EF60083928390838E11A802D0838801D0839831
:100F060011AA02D0838A01D0839A11AC02D0838CB5
:100F160001D0839C838027EC09F0839027EC09F0AD
:100F260011A002D0838801D0839811A202D0838AAF
:100F360001D0839A11A402D0838C01D0839C11A680
:100F460002D0838E01D0839E838027EC09F08390A4
:100F560027EC09F0120026502710D8B412004F2AA9
:100F6600390E4F641BD0300E4F6E4E2A390E4E642A
:100F760015D0300E4E6E4D2A390E4D640FD0300E00
:100F86004D6E4C2A390E4C6409D0300E4C6E4B2AED
:100F9600390E4B6403D0300E4B6E4A2A070E126E82
:100FA600010E41EC07F04A0E126E000E136E39EC7C
:100FB60008F0000E276E000E266E1200070E126E47
:100FC600010E41EC07F04A0E126E000E136E39EC5C
:100FD60008F0070E126E020E41EC07F0430E126E79
:100FE600000E136E39EC08F00E0E126E010E41EC77
:100FF60007F0010E126E080E136E39EC08F00E0E95
:10100600126E020E41EC07F0010E126E080E136E00
:1010160039EC08F01200000E176E000E186E000E66
:10102600196E000E1A6E0FA008D013501726145012
:1010360018221550192216501A22D8901336143633
:1010460015361636D8901232113210320F320F5032
:10105600101011101210D8A4E6D717C00FF018C040
:1010660010F019C011F01AC012F0120014D012C0FC
:10107600F6FF13C0F7FFF86A070EF76403D00800FF
:10108600F55005D0F6CFE9FFF7CFEAFFEF5008ECB1
:1010960007F0124A132A12C0F6FF13C0F7FFF86AC8
:1010A600070EF76403D00800F55005D0F6CFE9FF28
:1010B600F7CFEAFFEF500009D8B41200D8D7000ED8
:1010C600146E000E136E11501210D8B41CD0010EFF
:1010D600156E04D0D89011361236152A12AEFAD7EC
:1010E600D8901336143611500F5C12501058D8A0F1
:1010F60005D011500F5E1250105A1380D89012323C
:101106001132152EEDD713C00FF014C010F01200D7
:10111600940EF66E120EF76E000EF86E00EE3CF0B0
:1011260010EE15F00900F5CFEEFFE550E150FAE1BB
:1011360000EE60F0140EEE6AE806FDE100EE20F027
:101146001C0EEE6AE806FDE151905192000EF86E13
:10115600000139EF09F0000E926E000E936E000E3C
:10116600946E9484000E956E0F0E966E010EC26EEE
:101176000D0EC16E840EC06E8490000E896E000E38
:101186008A6E000E8C6E450ED56E050EBD6E440E33
:10119600CD6EB196F28EF28C1200C250C30B0409CA
:1011A600C26EF1EC08F038C00FF039C010F03AC04A
:1011B60011F03BC012F04D0E136E010E146E000EB0
:1011C600156E000E166E0EEC08F00FC020F010C063
:1011D60021F011C022F012C023F01200C2829C0E30
:1011E6000F6ED70EE82EFED70F2EFCD700F0C2B238
:1011F6001200C350C4CF0FF0106A0FC010F00F6A70
:101206000F26000E10220FC038F010C039F0000E65
:1012160039BEFF0E3A6E3B6E1200E00EF26E800E85
:10122600F16E000EF06E050EBD6E000E9E6E000E87
:10123600A16E040E9D6E000EA06E000E9F6E000E37
:10124600A26E000ED06E1200000E0F6E630E0F64BB
:1012560001D0120000F0000E106E310E106401D0A5
:1012660003D000F0102AF9D70F2AF0D72DEC06F09C
:1012760010EC09F0AEEC08F055EC09F0E1EC07F0E3
:10128600AEEC07F013EC05F003EC04F0F9D73030C0
:101296003030303000303030302C300030303030AC
:0312A600303000E5
:0612AA00040EA66E120006
:020000040020DA
:08000000FFFFFFFFFFFFFFFF00
:020000040030CA
:0E00000000051F1FFF8385FF0FC00FE00F409C
:00000001FF
