:0400000007EF00F016
:0A000800358265ED04F0ABEF06F061
:05080000004B6D00003B
:10080600000E166E000E156E2C502D10D8B4120068
:10081600232A390E23641200300E236E212A390E44
:10082600216426D0300E216E202A390E206420D075
:10083600300E206E1F2A390E1F641AD0300E1F6E1E
:100846001E2A390E1E6414D0000E346E030E346454
:1008560001D00ED03450010D1E0EF324D96E000EB9
:10086600F420DA6E300EDF6E300E236E342AEED7A9
:10087600070E126E020E93EC05F01E0E126E000E9F
:10088600136E60EC06F0000E2D6E000E2C6E84B01A
:1008960011D01650D8A40ED0050E156E1550010DA8
:1008A6001E0EF324D96E000EF420DA6E300EDF6EC3
:1008B6001506F4D784A012001604D8A41200000E60
:1008C600166E12000600FACF01F0FBCF02F0E9CF58
:1008D60003F0EACF04F0E1CF05F0E2CF06F0D9CF7E
:1008E60007F0DACF08F0F3CF09F0F4CF0AF0F6CF2D
:1008F6000BF0F7CF0CF0F8CF0DF0F5CF0EF09EB45D
:100906009DA422D0304A312A324A332AF40E3018B6
:100916000BE13104D8A408D0000E2D6E010E2C6E0A
:10092600000E316E000E306E880E32180CE1130E7A
:100936003318D8A408D0000E2F6E010E2E6E000EAE
:10094600336E000E326E9E940EC0F5FF0DC0F8FF9A
:100956000CC0F7FF0BC0F6FF0AC0F4FF09C0F3FF97
:1009660008C0DAFF07C0D9FF06C0E2FF05C0E1FFF5
:1009760004C0EAFF03C0E9FF02C0FBFF01C0FAFFA3
:10098600359211009594959295909598959A959C87
:10099600959E839483928390839E839C838A838887
:1009A600EA0E126EC30EE82EFED7122EFCD700F00A
:1009B6008380DFEC06F08390DFEC06F04E0E126EBD
:1009C600EB0EE82EFED7122EFCD700F08380DFEC6C
:1009D60006F08390DFEC06F04E0E126EEB0EE82E5C
:1009E600FED7122EFCD700F08380DFEC06F0839052
:1009F600DFEC06F0839E839C838A83988380DFECFA
:100A060006F08390DFEC06F0280E14EC05F0060ED7
:100A160014EC05F00E0E14EC05F0010E14EC05F0C6
:100A26001200116E83948392839011A802D083885A
:100A360001D0839811AA02D0838A01D0839A11AC7F
:100A460002D0838C01D0839C11AE02D0838E01D05C
:100A5600839E8380DFEC06F08390DFEC06F011A026
:100A660002D0838801D0839811A202D0838A01D054
:100A7600839A11A402D0838C01D0839C11A602D044
:100A8600838E01D0839E8380DFEC06F08390DFECBB
:100A960006F01104D8B408D0020E1118D8B404D048
:100AA600030E1118D8A41200DFEC06F01200116E26
:100AB60083948382839011A802D0838801D083987F
:100AC60011AA02D0838A01D0839A11AC02D0838CFA
:100AD60001D0839C11AE02D0838E01D0839E838089
:100AE600DFEC06F08390DFEC06F011A002D08388DD
:100AF60001D0839811A202D0838A01D0839A11A4CF
:100B060002D0838C01D0839C11A602D0838E01D0A3
:100B1600839E8380DFEC06F08390DFEC06F0120004
:100B2600136E000E146E110E12602FD01ED012C05E
:100B360014F01450CBEC05F026D01250400F146E72
:100B46001450CBEC05F01FD01250140F146E145035
:100B5600CBEC05F018D01250540F146E1450CBEC99
:100B660005F011D0000E146E0ED01350010AD8B441
:100B7600DED7030AD8B4E1D7010AD8B4E5D7070A05
:100B8600D8B4E9D7EFD7122A1200000E146E12005D
:100B9600116E839483928390838E11A802D08388EA
:100BA60001D0839811AA02D0838A01D0839A11AC0E
:100BB60002D0838C01D0839C8380DFEC06F0839087
:100BC600DFEC06F011A002D0838801D0839811A231
:100BD60002D0838A01D0839A11A402D0838C01D0DB
:100BE600839C11A602D0838E01D0839E8380DFEC86
:100BF60006F08390DFEC06F012002E502F10D8B4CA
:100C060012002A2A390E2A641BD0300E2A6E292A8F
:100C1600390E296415D0300E296E282A390E28641B
:100C26000FD0300E286E272A390E276409D0300ED1
:100C3600276E262A390E266403D0300E266E252A04
:100C4600070E126E010E93EC05F0250E126E000EC5
:100C5600136E60EC06F0000E2F6E000E2E6E120064
:100C6600070E126E010E93EC05F0250E126E000EA5
:100C7600136E60EC06F0070E126E020E93EC05F092
:100C86001E0E126E000E136E60EC06F00E0E126E45
:100C9600010E93EC05F0010E126E080E136E60EC59
:100CA60006F00E0E126E020E93EC05F0010E126E99
:100CB600080E136E60EC06F0120014D012C0F6FF98
:100CC60013C0F7FFF86A070EF76403D00800F55063
:100CD60005D0F6CFE9FFF7CFEAFFEF505AEC05F063
:100CE600124A132A12C0F6FF13C0F7FFF86A070E5E
:100CF600F76403D00800F55005D0F6CFE9FFF7CF2B
:100D0600EAFFEF500009D8B41200D8D7000E926E51
:100D1600000E936E000E946E9484000E956E0F0E68
:100D2600966E010EC26E0D0EC16E840EC06E84905C
:100D3600000E896E000E8A6E000E8C6E450ED56E04
:100D4600050EBD6E440ECD6EB196F28EF28C12007B
:100D5600000EF66E0E0EF76E000EF86E00EE17F031
:100D660010EE15F00900F5CFEEFFE550E150FAE17F
:100D760000EE2CF0090EEE6AE806FDE1359035929C
:100D8600000EF86E0001F1EF06F0E00EF26E800E36
:100D9600F16E000EF06E050EBD6E000E9E6E000E1C
:100DA600A16E040E9D6E000EA06E000E9F6E000ECC
:100DB600A26E000ED06E1200000E0F6E630E0F6450
:100DC60001D0120000F0000E106E310E106401D03A
:100DD60003D000F0102AF9D70F2AF0D7C5EC04F09B
:100DE600C8EC06F089EC06F00BEC07F033EC06F0E5
:100DF60000EC06F003EC04F0FBD730303030303036
:0F0E060000303030302C300030303030303000A1
:060E1600040EA66E12009E
:020000040020DA
:08000000FFFFFFFFFFFFFFFF00
:020000040030CA
:0E00000000051F1FFF8385FF0FC00FE00F409C
:00000001FF
