:0400000007EF00F016
:0A000800518213ED05F0C8EF08F077
:05080000004B6D00003B
:100806000ED0000E356E090E356401D006D00DEC03
:1008160009F032EC07F0352AF6D7000E356E3504AE
:10082600D8B4EFD7F40E2E5C010E2F58D8A0DCD02A
:100836000DEC09F032EC07F000016451000162256D
:1008460000017C6F000165510001632100017D6F8D
:100856000001665100017C270001675100017D23DC
:100866000001685100017C270001695100017D23C8
:1008760000016A5100017C2700016B5100017D23B4
:1008860000016C5100017C2700016D5100017D23A0
:1008960000016E5100017C2700016F5100017D238C
:1008A6000001705100017C270001715100017D2378
:1008B6000001725100017C270001735100017D2364
:1008C6000001605100017C250F6E0001615100019D
:1008D6007D21106E000E126E0A0E116E9FEC08F04E
:1008E6000FC030F010C031F0315006E1330E305CED
:1008F600D8B002D0000E816E315004E1330E305C68
:10090600D8A008D0315006E1560E305CD8B002D0DF
:10091600800E816E315004E1560E305CD8A008D0AE
:10092600315006E1790E305CD8B002D0C00E816E2F
:10093600315004E1790E305CD8A008D0315006E180
:100946009C0E305CD8B002D0E00E816E315004E1CE
:100956009C0E305CD8A008D0315006E1BF0E305C4A
:10096600D8B002D0F00E816E315004E1BF0E305C7B
:10097600D8A008D0315006E1E20E305CD8B002D0E3
:10098600F80E816E315004E1E20E305CD8A008D03A
:100996000D0E305C010E3158D8B002D0FC0E816EBF
:1009A6000D0E305C010E3158D8A008D0730E305CA5
:1009B600010E3158D8B002D0FE0E816E730E305C37
:1009C600010E3158D8B081685A0E305C010E31588C
:1009D600D8A003D0010E366E03D0000E366E82808C
:1009E600000E2F6E000E2E6EE80E2C5C030E2D5898
:1009F600D8A012003604D8A4120082A002D0010E9C
:100A060001D0000EFF0A00017C6F825000017C19A4
:100A1600FE0B7C19826E000E2D6E000E2C6E1200DF
:100A26000600FACF01F0FBCF02F0E9CF03F0EACFE0
:100A360004F0E1CF05F0E2CF06F0D9CF07F0DACF28
:100A460008F0F3CF09F0F4CF0AF0F6CF0BF0F7CFAA
:100A56000CF0F8CF0DF0F5CF0EF0F2BAF2A40AD0F2
:100A6600F294F294000ED76E450ED66E2E4A2F2AB9
:100A76002C4A2D2A9EB49DA422D0284A292A2A4AE5
:100A86002B2AF40E28180BE12904D8A408D0000E4E
:100A9600256E010E246E000E296E000E286E880E3D
:100AA6002A180CE1130E2B18D8A408D0000E276EB6
:100AB600010E266E000E2B6E000E2A6E9E940EC040
:100AC600F5FF0DC0F8FF0CC0F7FF0BC0F6FF0AC01C
:100AD600F4FF09C0F3FF08C0DAFF07C0D9FF06C05C
:100AE600E2FF05C0E1FF04C0EAFF03C0E9FF02C060
:100AF600FBFF01C0FAFF5192110026502710D8B40F
:100B06001200000E176E050E196E11D0100E156E1E
:100B16001950010D4A0EF324D96E000EF420DA6E38
:100B260015501724A5EC09F0DF6E172A1906070ED3
:100B36001960ECD74F2A390E4F641BD0300E4F6E1A
:100B46004E2A390E4E6415D0300E4E6E4D2A390E91
:100B56004D640FD0300E4D6E4C2A390E4C6409D0C0
:100B6600300E4C6E4B2A390E4B6403D0300E4B6E52
:100B76004A2A100E166E000E186E050E1A6E10D04A
:100B86001A50010D4A0EF324D96E000EF420DA6EC7
:100B9600DF500F6E1650182464EC09F0182A1A0656
:100BA6001A50D8A4EDD7070E126E010EB1EC07F05D
:100BB6004A0E126E000E136E76EC08F0000E276ECB
:100BC600000E266E1200000E166E000E156E2450D4
:100BD6002510D8B43DD0482A390E48642AD0300EA4
:100BE600486E462A390E466424D0300E466E452A93
:100BF600390E45641ED0300E456E442A390E4464C3
:100C060018D0300E446E432A390E436412D0000EBB
:100C1600376E030E376401D00CD03750010D430EEA
:100C2600F324D96E000EF420DA6E300EDF6E372A0A
:100C3600F0D7070E126E020EB1EC07F0430E126EDD
:100C4600000E136E76EC08F0000E256E000E246E74
:100C560084B010D01650D8A40DD0300E436E300E8E
:100C6600446E300E456E300E466E300E486E010EE6
:100C7600166E120084A012001604D8A41200000EEC
:100C8600166E1200000E1B6E000E1C6E000E1D6E00
:100C9600000E1E6E000178510001791100017A11D3
:100CA60000017B11D8B43DD0010E1F6E07D00001A4
:100CB600D890783779377A377B371F2A00017BAF90
:100CC600F6D7D8901B361C361D361E3600017851D5
:100CD6000001745D000179510001755900017A51D6
:100CE6000001765900017B5100017759D8A011D037
:100CF600000178510001745F000179510001755BB4
:100D060000017A510001765B00017B510001775B9F
:100D16001B800001D8907B337A33793378331F2ECA
:100D2600D0D71BC074F01CC075F01DC076F01EC075
:100D360077F012009594959295909598959A959C32
:100D4600959E839483928390839E839C838A8388D3
:100D5600EA0E126EC30EE82EFED7122EFCD700F056
:100D6600838077EC09F0839077EC09F04E0E126ED3
:100D7600EB0EE82EFED7122EFCD700F0838077EC20
:100D860009F0839077EC09F04E0E126EEB0EE82E0A
:100D9600FED7122EFCD700F0838077EC09F0839003
:100DA60077EC09F0839E839C838A8398838077EC13
:100DB60009F0839077EC09F0280EECEC06F0060EAD
:100DC600ECEC06F00E0EECEC06F0010EECEC06F088
:100DD6001200116E83948392839011A802D08388A7
:100DE60001D0839811AA02D0838A01D0839A11ACCC
:100DF60002D0838C01D0839C11AE02D0838E01D0A9
:100E0600839E838077EC09F0839077EC09F011A03C
:100E160002D0838801D0839811A202D0838A01D0A0
:100E2600839A11A402D0838C01D0839C11A602D090
:100E3600838E01D0839E838077EC09F0839077ECD4
:100E460009F01104D8B408D0020E1118D8B404D091
:100E5600030E1118D8A4120077EC09F01200C29400
:100E6600C296C298C29A2EEC09F038C00FF039C06B
:100E760010F03AC011F03BC012F0A00E136E860EB1
:100E8600146E010E156E000E166E4BEC08F00FC0B8
:100E960074F010C075F011C076F012C077F020C063
:100EA60078F021C079F022C07AF023C07BF045ECBF
:100EB60006F074C038F075C039F076C03AF077C0E5
:100EC6003BF03450020D600EF324D96E000EF42070
:100ED600DA6E38C0DEFF39C0DDFF342A0A0E341858
:100EE600D8A41200000E346E1200116E8394838211
:100EF600839011A802D0838801D0839811AA02D0CA
:100F0600838A01D0839A11AC02D0838C01D0839C52
:100F160011AE02D0838E01D0839E838077EC09F0D8
:100F2600839077EC09F011A002D0838801D08398D2
:100F360011A202D0838A01D0839A11A402D0838C95
:100F460001D0839C11A602D0838E01D0839E83801C
:100F560077EC09F0839077EC09F01200136E000E1F
:100F6600146E110E12602FD01ED012C014F0145041
:100F7600E9EC07F026D01250400F146E1450E9EC3D
:100F860007F01FD01250140F146E1450E9EC07F03E
:100F960018D01250540F146E1450E9EC07F011D00B
:100FA600000E146E0ED01350010AD8B4DED7030A11
:100FB600D8B4E1D7010AD8B4E5D7070AD8B4E9D737
:100FC600EFD7122A1200000E146E1200116E8394CF
:100FD60083928390838E11A802D0838801D0839850
:100FE60011AA02D0838A01D0839A11AC02D0838CD5
:100FF60001D0839C838077EC09F0839077EC09F02D
:1010060011A002D0838801D0839811A202D0838ACE
:1010160001D0839A11A402D0838C01D0839C11A69F
:1010260002D0838E01D0839E838077EC09F0839073
:1010360077EC09F01200070E126E010EB1EC07F004
:101046004A0E126E000E136E76EC08F0070E126E44
:10105600020EB1EC07F0430E126E000E136E76EC24
:1010660008F00E0E126E010EB1EC07F0010E126EB4
:10107600080E136E76EC08F00E0E126E020EB1EC30
:1010860007F0010E126E080E136E76EC08F01200D1
:10109600000E176E000E186E000E196E000E1A6EF8
:1010A6000FA008D0135017261450182215501922D5
:1010B60016501A22D8901336143615361636D8908E
:1010C6001232113210320F320F501010111012104E
:1010D600D8A4E6D717C00FF018C010F019C011F049
:1010E6001AC012F0120014D012C0F6FF13C0F7FF98
:1010F600F86A070EF76403D00800F55005D0F6CF5E
:10110600E9FFF7CFEAFFEF5078EC07F0124A132A0F
:1011160012C0F6FF13C0F7FFF86A070EF76403D094
:101126000800F55005D0F6CFE9FFF7CFEAFFEF50FC
:101136000009D8B41200D8D7000E146E000E136E34
:1011460011501210D8B41CD0010E156E04D0D890D0
:1011560011361236152A12AEFAD7D890133614362F
:1011660011500F5C12501058D8A005D011500F5EC8
:101176001250105A1380D89012321132152EEDD714
:1011860013C00FF014C010F01200340EF66E130EDA
:10119600F76E000EF86E00EE3CF010EE15F009004A
:1011A600F5CFEEFFE550E150FAE100EE60F0140EE7
:1011B600EE6AE806FDE100EE20F01C0EEE6AE80697
:1011C600FDE151905192000EF86E000189EF09F091
:1011D600000E926E000E936E000E946E9484000EB6
:1011E600956E0F0E966E010EC26E0D0EC16E840EBA
:1011F600C06E8490000E896E000E8A6E000E8C6E94
:10120600450ED56E050EBD6E440ECD6EB196F28EB0
:10121600F28C1200C250C30B0409C26E2EEC09F008
:1012260038C00FF039C010F03AC011F03BC012F0D0
:101236004D0E136E010E146E000E156E000E166E18
:101246004BEC08F00FC020F010C021F011C022F0C6
:1012560012C023F01200C2829C0E0F6ED70EE82E2B
:10126600FED70F2EFCD700F0C2B21200C350C4CF77
:101276000FF0106A0FC010F00F6A0F26000E102232
:101286000FC038F010C039F0000E39BEFF0E3A6EAE
:101296003B6E1200E00EF26E800EF16E000EF06EE6
:1012A600050EBD6E000E9E6E000EA16E040E9D6EA6
:1012B600000EA06E000E9F6E000EA26E000ED06E87
:1012C6001200106E10C0A9FF0FC0A8FFA69EA69C14
:1012D600A684F29E550EA76EAA0EA76EA682A6B289
:1012E600FED7F28EA6941200000E0F6E630E0F64E8
:1012F60001D0120000F0000E106E310E106401D005
:1013060003D000F0102AF9D70F2AF0D79DEC06F08B
:101316004DEC09F0EBEC08F0ACEC09F01EEC08F033
:1013260080EC05F0E6EC05F003EC04F0F9D730307C
:101336003030303000303030302C3000303030300B
:0313460030300044
:10134A000F6E0FC0A9FF010EA66EA8501200040E60
:04135A00A66E120069
:020000040020DA
:08000000FFFFFFFFFFFFFFFF00
:020000040030CA
:0E00000000051F1FFF8385FF0FC00FE00F409C
:00000001FF
