:0400000007EF00F016
:0A000800358264ED04F0AAEF06F063
:05080000004B6D00003B
:10080600000E166E000E156E2C502D10D8B4120068
:10081600232A390E23641200300E236E212A390E44
:10082600216426D0300E216E202A390E206420D075
:10083600300E206E1F2A390E1F641AD0300E1F6E1E
:100846001E2A390E1E6414D0000E346E030E346454
:1008560001D00ED03450010D1E0EF324D96E000EB9
:10086600F420DA6E300EDF6E300E236E342AEED7A9
:10087600070E126E020E92EC05F01E0E126E000EA0
:10088600136E5FEC06F0000E2D6E000E2C6E84B01B
:1008960010D01650D8A40DD0300E1E6E300E1F6E1E
:1008A600300E206E300E216E300E236E010E166E47
:1008B600120084A012001604D8A41200000E166EB0
:1008C60012000600FACF01F0FBCF02F0E9CF03F0E9
:1008D600EACF04F0E1CF05F0E2CF06F0D9CF07F07A
:1008E600DACF08F0F3CF09F0F4CF0AF0F6CF0BF029
:1008F600F7CF0CF0F8CF0DF0F5CF0EF09EB49DA417
:1009060022D0304A312A324A332AF40E30180BE10B
:100916003104D8A408D0000E2D6E010E2C6E000EE8
:10092600316E000E306E880E32180CE1130E33183D
:10093600D8A408D0000E2F6E010E2E6E000E336E58
:10094600000E326E9E940EC0F5FF0DC0F8FF0CC06F
:10095600F7FF0BC0F6FF0AC0F4FF09C0F3FF08C09B
:10096600DAFF07C0D9FF06C0E2FF05C0E1FF04C0F9
:10097600EAFF03C0E9FF02C0FBFF01C0FAFF3592A0
:1009860011009594959295909598959A959C959E1B
:10099600839483928390839E839C838A8388EA0EC2
:1009A600126EC30EE82EFED7122EFCD700F08380FF
:1009B600DEEC06F08390DEEC06F04E0E126EEB0EC9
:1009C600E82EFED7122EFCD700F08380DEEC06F070
:1009D6008390DEEC06F04E0E126EEB0EE82EFED77E
:1009E600122EFCD700F08380DEEC06F08390DEEC5E
:1009F60006F0839E839C838A83988380DEEC06F0D0
:100A06008390DEEC06F0280E13EC05F0060E13ECD0
:100A160005F00E0E13EC05F0010E13EC05F01200B6
:100A2600116E83948392839011A802D0838801D09B
:100A3600839811AA02D0838A01D0839A11AC02D07E
:100A4600838C01D0839C11AE02D0838E01D0839E0D
:100A56008380DEEC06F08390DEEC06F011A002D077
:100A6600838801D0839811A202D0838A01D0839A09
:100A760011A402D0838C01D0839C11A602D0838E50
:100A860001D0839E8380DEEC06F08390DEEC06F0D8
:100A96001104D8B408D0020E1118D8B404D0030E2D
:100AA6001118D8A41200DEEC06F01200116E839421
:100AB6008382839011A802D0838801D0839811AADB
:100AC60002D0838A01D0839A11AC02D0838C01D0E4
:100AD600839C11AE02D0838E01D0839E8380DEEC90
:100AE60006F08390DEEC06F011A002D0838801D0D8
:100AF600839811A202D0838A01D0839A11A402D0CE
:100B0600838C01D0839C11A602D0838E01D0839E54
:100B16008380DEEC06F08390DEEC06F01200136EA6
:100B2600000E146E110E12602FD01ED012C014F0DB
:100B36001450CAEC05F026D01250400F146E145013
:100B4600CAEC05F01FD01250140F146E1450CAECE4
:100B560005F018D01250540F146E1450CAEC05F05C
:100B660011D0000E146E0ED01350010AD8B4DED781
:100B7600030AD8B4E1D7010AD8B4E5D7070AD8B42E
:100B8600E9D7EFD7122A1200000E146E1200116E6A
:100B9600839483928390838E11A802D0838801D098
:100BA600839811AA02D0838A01D0839A11AC02D00D
:100BB600838C01D0839C8380DEEC06F08390DEEC90
:100BC60006F011A002D0838801D0839811A202D02A
:100BD600838A01D0839A11A402D0838C01D0839C8E
:100BE60011A602D0838E01D0839E8380DEEC06F0B0
:100BF6008390DEEC06F012002E502F10D8B41200AF
:100C06002A2A390E2A641BD0300E2A6E292A390E5A
:100C1600296415D0300E296E282A390E28640FD083
:100C2600300E286E272A390E276409D0300E276E1B
:100C3600262A390E266403D0300E266E252A070E84
:100C4600126E010E92EC05F0250E126E000E136E5A
:100C56005FEC06F0000E2F6E000E2E6E1200070ED1
:100C6600126E010E92EC05F0250E126E000E136E3A
:100C76005FEC06F0070E126E020E92EC05F01E0EE9
:100C8600126E000E136E5FEC06F00E0E126E010E63
:100C960092EC05F0010E126E080E136E5FEC06F074
:100CA6000E0E126E020E92EC05F0010E126E080E7A
:100CB600136E5FEC06F0120014D012C0F6FF13C0DC
:100CC600F7FFF86A070EF76403D00800F55005D061
:100CD600F6CFE9FFF7CFEAFFEF5059EC05F0124ADD
:100CE600132A12C0F6FF13C0F7FFF86A070EF7645F
:100CF60003D00800F55005D0F6CFE9FFF7CFEAFF9D
:100D0600EF500009D8B41200D8D7000E926E000E2C
:100D1600936E000E946E9484000E956E0F0E966E72
:100D2600010EC26E0D0EC16E840EC06E8490000E52
:100D3600896E000E8A6E000E8C6E450ED56E050EFF
:100D4600BD6E440ECD6EB196F28EF28C1200FE0E82
:100D5600F66E0D0EF76E000EF86E00EE17F010EE42
:100D660015F00900F5CFEEFFE550E150FAE100EE8F
:100D76002CF0090EEE6AE806FDE135903592000E7C
:100D8600F86E0001F0EF06F0E00EF26E800EF16EE6
:100D9600000EF06E050EBD6E000E9E6E000EA16E6C
:100DA600040E9D6E000EA06E000E9F6E000EA26ECB
:100DB600000ED06E1200000E0F6E630E0F6401D08F
:100DC600120000F0000E106E310E106401D003D038
:100DD60000F0102AF9D70F2AF0D7C4EC04F0C7ECBC
:100DE60006F088EC06F00AEC07F032EC06F0FFECB1
:100DF60005F003EC04F0FBD73030303030300030F3
:0D0E06003030302C300030303030303000D3
:060E1400040EA66E1200A0
:020000040020DA
:08000000FFFFFFFFFFFFFFFF00
:020000040030CA
:0E00000000051F1FFF8385FF0FC00FE00F409C
:00000001FF
