:0400000007EF00F016
:0A000800518281ED05F031EF08F0A0
:05080000004B6D00003B
:100806000ED0000E356E090E356401D006D030ECE0
:1008160009F045EC07F0352AF6D7000E356E35049B
:10082600D8B4EFD7F40E2E5C010E2F58D8A0DCD02A
:1008360030EC09F045EC07F0000164510001622537
:1008460000017C6F000165510001632100017D6F8D
:100856000001665100017C270001675100017D23DC
:100866000001685100017C270001695100017D23C8
:1008760000016A5100017C2700016B5100017D23B4
:1008860000016C5100017C2700016D5100017D23A0
:1008960000016E5100017C2700016F5100017D238C
:1008A6000001705100017C270001715100017D2378
:1008B6000001725100017C270001735100017D2364
:1008C6000001605100017C250F6E0001615100019D
:1008D6007D21106E000E126E0A0E116EE5EC08F008
:1008E6000FC030F010C031F0315006E1330E305CED
:1008F600D8B002D0000E816E315004E1330E305C68
:10090600D8A008D0315006E1560E305CD8B002D0DF
:10091600800E816E315004E1560E305CD8A008D0AE
:10092600315006E1790E305CD8B002D0C00E816E2F
:10093600315004E1790E305CD8A008D0315006E180
:100946009C0E305CD8B002D0E00E816E315004E1CE
:100956009C0E305CD8A008D0315006E1BF0E305C4A
:10096600D8B002D0F00E816E315004E1BF0E305C7B
:10097600D8A008D0315006E1E20E305CD8B002D0E3
:10098600F80E816E315004E1E20E305CD8A008D03A
:100996000D0E305C010E3158D8B002D0FC0E816EBF
:1009A6000D0E305C010E3158D8A008D0730E305CA5
:1009B600010E3158D8B002D0FE0E816E730E305C37
:1009C600010E3158D8B081685A0E305C010E31588C
:1009D600D8A003D0010E366E03D0000E366E82808C
:1009E600000E2F6E000E2E6EE80E2C5C030E2D5898
:1009F600D8A012003604D8A4120082A002D0010E9C
:100A060001D0000EFF0A00017C6F825000017C19A4
:100A1600FE0B7C19826E000E2D6E000E2C6E1200DF
:100A2600000EC8EC09F04F6E010EC8EC09F04E6ED0
:100A3600020EC8EC09F04D6E030EC8EC09F04C6EC0
:100A4600040EC8EC09F04B6E050EC8EC09F04A6EB0
:100A560026502710D8B424D04F2A390E4F6420D000
:100A6600300E4F6E4E2A390E4E641AD0300E4E6E30
:100A76004D2A390E4D6414D0300E4D6E4C2A390E67
:100A86004C640ED0300E4C6E4B2A390E4B6408D097
:100A9600300E4B6E4A2A390E4A6402D0300E4A6E28
:100AA600000E276E000E266E070E126E010EC4ECA7
:100AB60007F04A0E126E000E136EBCEC08F04FC023
:100AC6000FF0000E87EC09F04EC00FF0010E87EC18
:100AD60009F04DC00FF0020E87EC09F04CC00FF084
:100AE600030E87EC09F04BC00FF0040E87EC09F0FB
:100AF6004AC00FF0050E87EC09F012000600FACF87
:100B060001F0FBCF02F0E9CF03F0EACF04F0E1CF2A
:100B160005F0E2CF06F0D9CF07F0DACF08F0F3CF31
:100B260009F0F4CF0AF0F6CF0BF0F7CF0CF0F8CFC0
:100B36000DF0F5CF0EF0F2BAF2A40AD0F294F294C8
:100B4600000ED76E450ED66E2E4A2F2A2C4A2D2A17
:100B56009EB49DA422D0284A292A2A4A2B2AF40E7A
:100B660028180BE12904D8A408D0000E256E010E22
:100B7600246E000E296E000E286E880E2A180CE1CF
:100B8600130E2B18D8A408D0000E276E010E266E61
:100B9600000E2B6E000E2A6E9E940EC0F5FF0DC041
:100BA600F8FF0CC0F7FF0BC0F6FF0AC0F4FF09C040
:100BB600F3FF08C0DAFF07C0D9FF06C0E2FF05C091
:100BC600E1FF04C0EAFF03C0E9FF02C0FBFF01C06A
:100BD600FAFF51921100000E166E000E156E24508B
:100BE6002510D8B43DD0482A390E48642AD0300E94
:100BF600486E462A390E466424D0300E466E452A83
:100C0600390E45641ED0300E456E442A390E4464B2
:100C160018D0300E446E432A390E436412D0000EAB
:100C2600376E030E376401D00CD03750010D430EDA
:100C3600F324D96E000EF420DA6E300EDF6E372AFA
:100C4600F0D7070E126E020EC4EC07F0430E126EBA
:100C5600000E136EBCEC08F0000E256E000E246E1E
:100C660084B01BD01650D8A418D0300E436E300E68
:100C7600446E300E456E300E466E300E486E070ED0
:100C8600126E020EC4EC07F0430E126E000E136EC7
:100C9600BCEC08F0010E166E120084A012001604B9
:100CA600D8A41200000E166E1200000E1B6E000E67
:100CB6001C6E000E1D6E000E1E6E000178510001A6
:100CC600791100017A1100017B11D8B43DD0010ED3
:100CD6001F6E07D00001D890783779377A377B377F
:100CE6001F2A00017BAFF6D7D8901B361C361D365F
:100CF6001E36000178510001745D00017951000132
:100D0600755900017A510001765900017B510001A5
:100D16007759D8A011D0000178510001745F000105
:100D260079510001755B00017A510001765B000183
:100D36007B510001775B1B800001D8907B337A33AF
:100D4600793378331F2ED0D71BC074F01CC075F0D2
:100D56001DC076F01EC077F012009594959295907E
:100D66009598959A959C959E839483928390839E5D
:100D7600839C838A8388EA0E126EC30EE82EFED702
:100D8600122EFCD700F083809AEC09F083909AEC3F
:100D960009F04E0E126EEB0EE82EFED7122EFCD781
:100DA60000F083809AEC09F083909AEC09F04E0EDD
:100DB600126EEB0EE82EFED7122EFCD700F08380C3
:100DC6009AEC09F083909AEC09F0839E839C838ABF
:100DD600839883809AEC09F083909AEC09F0280EA8
:100DE600FFEC06F0060EFFEC06F00E0EFFEC06F02A
:100DF600010EFFEC06F01200116E8394839283902D
:100E060011A802D0838801D0839811AA02D0838AC0
:100E160001D0839A11AC02D0838C01D0839C11AE91
:100E260002D0838E01D0839E83809AEC09F0839052
:100E36009AEC09F011A002D0838801D0839811A200
:100E460002D0838A01D0839A11A402D0838C01D068
:100E5600839C11A602D0838E01D0839E83809AEC58
:100E660009F083909AEC09F01104D8B408D0020E68
:100E76001118D8B404D0030E1118D8A412009AEC95
:100E860009F01200C294C296C298C29A51EC09F0B7
:100E960038C00FF039C010F03AC011F03BC012F064
:100EA600A00E136E860E146E010E156E000E166ED3
:100EB60091EC08F00FC074F010C075F011C076F018
:100EC60012C077F020C078F021C079F022C07AF005
:100ED60023C07BF058EC06F074C038F075C039F0CA
:100EE60076C03AF077C03BF03450020D600EF32422
:100EF600D96E000EF420DA6E38C0DEFF39C0DDFF91
:100F0600342A0A0E3418D8A41200000E346E1200C9
:100F1600116E83948382839011A802D0838801D0B6
:100F2600839811AA02D0838A01D0839A11AC02D089
:100F3600838C01D0839C11AE02D0838E01D0839E18
:100F460083809AEC09F083909AEC09F011A002D004
:100F5600838801D0839811A202D0838A01D0839A14
:100F660011A402D0838C01D0839C11A602D0838E5B
:100F760001D0839E83809AEC09F083909AEC09F065
:100F86001200136E000E146E110E12602FD01ED0BA
:100F960012C014F01450FCEC07F026D01250400F8B
:100FA600146E1450FCEC07F01FD01250140F146E80
:100FB6001450FCEC07F018D01250540F146E145055
:100FC600FCEC07F011D0000E146E0ED01350010A7F
:100FD600D8B4DED7030AD8B4E1D7010AD8B4E5D726
:100FE600070AD8B4E9D7EFD7122A1200000E146EFA
:100FF6001200116E839483928390838E11A802D07F
:10100600838801D0839811AA02D0838A01D0839A5B
:1010160011AC02D0838C01D0839C83809AEC09F0BA
:1010260083909AEC09F011A002D0838801D08398AE
:1010360011A202D0838A01D0839A11A402D0838C94
:1010460001D0839C11A602D0838E01D0839E83801B
:101056009AEC09F083909AEC09F012009E0EF66E57
:10106600130EF76E000EF86E00EE7EF010EE07F02F
:101076000900F5CFEEFFE550E150FAE17A0EF66E83
:10108600130EF76E000EF86E00EE3CF010EE15F043
:101096000900F5CFEEFFE550E150FAE100EE60F011
:1010A600140EEE6AE806FDE100EE20F01C0EEE6A74
:1010B600E806FDE151905192000EF86E0001ACEF8A
:1010C60009F0070E126E010EC4EC07F07E0E126ECA
:1010D600000E136EBCEC08F0070E126E020EC4EC86
:1010E60007F0430E126E000E136EBCEC08F00E0EE7
:1010F600126E010EC4EC07F0010E126E080E136E8E
:10110600BCEC08F00E0E126E020EC4EC07F0010ED7
:10111600126E080E136EBCEC08F01200000E176E6D
:10112600000E186E000E196E000E1A6E0FA008D073
:1011360013501726145018221550192216501A2229
:10114600D8901336143615361636D8901232113218
:1011560010320F320F50101011101210D8A4E6D70B
:1011660017C00FF018C010F019C011F01AC012F015
:10117600120014D012C0F6FF13C0F7FFF86A070E6C
:10118600F76403D00800F55005D0F6CFE9FFF7CF96
:10119600EAFFEF508BEC07F0124A132A12C0F6FF53
:1011A60013C0F7FFF86A070EF76403D00800F5507E
:1011B60005D0F6CFE9FFF7CFEAFFEF500009D8B424
:1011C6001200D8D7000E146E000E136E11501210B6
:1011D600D8B41CD0010E156E04D0D8901136123634
:1011E600152A12AEFAD7D8901336143611500F5C62
:1011F60012501058D8A005D011500F5E1250105A38
:101206001380D89012321132152EEDD713C00FF07D
:1012160014C010F01200000E926E000E936E000EB7
:10122600946E9484000E956E0F0E966E010EC26E2D
:101236000D0EC16E840EC06E8490000E896E000E77
:101246008A6E000E8C6E450ED56E050EBD6E440E72
:10125600CD6EB196F28EF28C1200C250C30B040909
:10126600C26E51EC09F038C00FF039C010F03AC028
:1012760011F03BC012F04D0E136E010E146E000EEF
:10128600156E000E166E91EC08F00FC020F010C01F
:1012960021F011C022F012C023F01200C2829C0E6F
:1012A6000F6ED70EE82EFED70F2EFCD700F0C2B277
:1012B6001200C350C4CF0FF0106A0FC010F00F6AAF
:1012C6000F26000E10220FC038F010C039F0000EA5
:1012D60039BEFF0E3A6E3B6E1200E00EF26E800EC5
:1012E600F16E000EF06E050EBD6E000E9E6E000EC7
:1012F600A16E040E9D6E000EA06E000E9F6E000E77
:10130600A26E000ED06E1200106E10C0A9FF0FC0A4
:10131600A8FFA69EA69CA684F29E550EA76EAA0EB0
:10132600A76EA682A6B2FED7F28EA6941200000E73
:101336000F6E630E0F6401D0120000F0000E106EE7
:10134600310E106401D003D000F0102AF9D70F2A0D
:10135600F0D7B0EC06F070EC09F00EEC09F0D3EC27
:1013660009F064EC08F013EC05F0EEEC05F003EC84
:1013760004F0F9D730303030303000303030302C97
:091386003000303030303030000E
:101390000F6E0FC0A9FF010EA66EA85012003030CC
:0513A000303030300088
:0613A600040EA66E120009
:020000040020DA
:08000000FFFFFFFFFFFFFFFF00
:020000040030CA
:0E00000000051F1FFF8385FF0FC00FE00F409C
:00000001FF
