:0400000007EF00F016
:0A000800378203ED04F0CAEF06F0A2
:05080000004B6D00003B
:100806000600FACF01F0FBCF02F0E9CF03F0EACF02
:1008160004F0E1CF05F0E2CF06F0D9CF07F0DACF4A
:1008260008F0F3CF09F0F4CF0AF0F6CF0BF0F7CFCC
:100836000CF0F8CF0DF0F5CF0EF09EB49DA422D0AB
:10084600324A332A344A352AF40E32180BE133047D
:10085600D8A408D0000E2F6E010E2E6E000E336E39
:10086600000E326E880E34180CE1130E3518D8A41B
:1008760008D0000E316E010E306E000E356E000E81
:10088600346E9E940EC0F5FF0DC0F8FF0CC0F7FF46
:100896000BC0F6FF0AC0F4FF09C0F3FF08C0DAFF79
:1008A60007C0D9FF06C0E2FF05C0E1FF04C0EAFFAA
:1008B60003C0E9FF02C0FBFF01C0FAFF3792110037
:1008C6009594959295909598959A959C959E8394D6
:1008D60083928390839E839C838A8388EA0E126E1A
:1008E600C30EE82EFED7122EFCD700F0838011EC43
:1008F60007F0839011EC07F04E0E126EEB0EE82E09
:10090600FED7122EFCD700F0838011EC07F08390FF
:1009160011EC07F04E0E126EEB0EE82EFED7122EDD
:10092600FCD700F0838011EC07F0839011EC07F000
:10093600839E839C838A8398838011EC07F083903F
:1009460011EC07F0280EFDEC04F0060EFDEC04F0A9
:100956000E0EFDEC04F0010EFDEC04F0120030501A
:100966003110D8B42ED02C2A390E2C641BD0300E60
:100976002C6E2B2A390E2B6415D0300E2B6E2A2A9C
:10098600390E2A640FD0300E2A6E292A390E2964B0
:1009960009D0300E296E282A390E286403D0300E6D
:1009A600286E272A070E126E010EC0EC05F0270EE0
:1009B600126E000E136E5AEC06F0000E316E000E2B
:1009C600306E000E166E040E156E040E166401D0FF
:1009D60012001550010D270EF324D96E000EF420D7
:1009E600DA6EDF500F6E1650100FFEEC06F0162A68
:1009F6001506EBD7116E83948392839011A802D0CB
:100A0600838801D0839811AA02D0838A01D0839A61
:100A160011AC02D0838C01D0839C11AE02D0838EA0
:100A260001D0839E838011EC07F0839011EC07F0D0
:100A360011A002D0838801D0839811A202D0838AA4
:100A460001D0839A11A402D0838C01D0839C11A675
:100A560002D0838E01D0839E838011EC07F08390B1
:100A660011EC07F01104D8B408D0020E1118D8B44E
:100A760004D0030E1118D8A4120011EC07F01200CE
:100A86002E502F10D8B41200252A390E25641200D4
:100A9600300E256E232A390E236426D0300E236E9F
:100AA600222A390E226420D0300E226E212A390ED7
:100AB60021641AD0300E216E202A390E206414D0FB
:100AC600000E366E030E366401D00ED03650010D80
:100AD600200EF324D96E000EF420DA6E300EDF6E8F
:100AE600300E256E362AEED7070E126E020EC0ECB9
:100AF60005F0200E126E000E136E5AEC06F0000E74
:100B06002F6E000E2E6E1200116E839483828390D8
:100B160011A802D0838801D0839811AA02D0838AB3
:100B260001D0839A11AC02D0838C01D0839C11AE84
:100B360002D0838E01D0839E838011EC07F08390D0
:100B460011EC07F011A002D0838801D0839811A27E
:100B560002D0838A01D0839A11A402D0838C01D05B
:100B6600839C11A602D0838E01D0839E838011ECD4
:100B760007F0839011EC07F01200136E000E146E4E
:100B8600110E12602FD01ED012C014F01450F8ECC3
:100B960005F026D01250400F146E1450F8EC05F0F4
:100BA6001FD01250140F146E1450F8EC05F018D024
:100BB6001250540F146E1450F8EC05F011D0000EBC
:100BC600146E0ED01350010AD8B4DED7030AD8B477
:100BD600E1D7010AD8B4E5D7070AD8B4E9D7EFD7E1
:100BE600122A1200000E146E1200116E8394839264
:100BF6008390838E11A802D0838801D0839811AA8E
:100C060002D0838A01D0839A11AC02D0838C01D0A2
:100C1600839C838011EC07F0839011EC07F011A000
:100C260002D0838801D0839811A202D0838A01D092
:100C3600839A11A402D0838C01D0839C11A602D082
:100C4600838E01D0839E838011EC07F0839011EC94
:100C560007F01200070E126E010EC0EC05F0270E0B
:100C6600126E000E136E5AEC06F0070E126E020E8E
:100C7600C0EC05F0200E126E000E136E5AEC06F054
:100C86000E0E126E010EC0EC05F0010E126E080E6D
:100C9600136E5AEC06F00E0E126E020EC0EC05F044
:100CA600010E126E080E136E5AEC06F0120014D0E6
:100CB60012C0F6FF13C0F7FFF86A070EF76403D0F9
:100CC6000800F55005D0F6CFE9FFF7CFEAFFEF5061
:100CD60087EC05F0124A132A12C0F6FF13C0F7FF7D
:100CE600F86A070EF76403D00800F55005D0F6CF72
:100CF600E9FFF7CFEAFFEF500009D8B41200D8D7C2
:100D060063EC04F0E7EC06F0A8EC06F035EC07F02F
:100D16002DEC06F0000E186E040E176E040E186405
:100D260001D00ED01750010D270EF324D96E000EF8
:100D3600F420DA6EDF502EEC07F0182A1706EED7ED
:100D4600B2EC04F043EC05F0FBD7000E926E000EF9
:100D5600936E000E946E9484000E956E0F0E966E32
:100D6600010EC26E0D0EC16E840EC06E8490000E12
:100D7600896E000E8A6E000E8C6E450ED56E050EBF
:100D8600BD6E440ECD6EB196F28EF28C1200460EFA
:100D9600F66E0E0EF76E000EF86E00EE19F010EEFF
:100DA60015F00900F5CFEEFFE550E150FAE100EE4F
:100DB6002EF0090EEE6AE806FDE137903792000E36
:100DC600F86E000183EF06F0E00EF26E800EF16E13
:100DD600000EF06E050EBD6E000E9E6E000EA16E2C
:100DE600040E9D6E000EA06E000E9F6E000EA26E8B
:100DF600000ED06E1200106E10C0A9FF0FC0A8FF23
:100E0600A69EA69CA684F29E550EA76EAA0EA76E57
:100E1600A682A6B2FED7F28EA6941200000E0F6E20
:100E2600630E0F6401D0120000F0000E106E310E3A
:100E3600106401D003D000F0102AF9D70F2AF0D79A
:100E460030303030303000303030302C3000303000
:050E56003030303000D7
:100E5C000F6E0FC0A9FF010EA66EA8501200040E53
:040E6C00A66E12005C
:020000040020DA
:08000000FFFFFFFFFFFFFFFF00
:020000040030CA
:0E00000000051F1FFF8385FF0FC00FE00F409C
:00000001FF
